:020000040800F2
:108000000000022035370108B1360108B1360108F9
:10801000B1360108B1360108B13601080000000090
:10802000000000000000000000000000B136010860
:10803000B136010800000000B1360108F905002042
:10804000B1360108B1360108B136010859F200080D
:10805000B1360108B1360108B1360108B136010860
:10806000B1360108B1360108B1360108B136010850
:10807000B1360108B136010851EE000821EE0008C2
:10808000B1360108B1360108B1360108B136010830
:10809000B1360108B1360108B1360108B136010820
:1080A000B136010829CA0008B136010879CA0008AA
:1080B000B1360108B1360108B1360108B136010800
:1080C000B1360108B1360108B1360108B1360108F0
:1080D000B13601087D8A0008698B0008618C0008B0
:1080E000B13601082DF20008B1360108B136010899
:1080F000B1360108B1360108B1360108B1360108C0
:10810000B1360108A9EB0008B1360108B136010803
:10811000B1360108B1360108B1360108B13601089F
:10812000B1360108B1360108B1360108B13601088F
:10813000B1360108B1360108B1360108B13601087F
:10814000B1360108B1360108B1360108B13601086F
:10815000B1360108B1360108B1360108B13601085F
:10816000B1360108B1360108B1360108B13601084F
:10817000B1360108B1360108B1360108B13601083F
:10818000B1360108B1360108B1360108B13601082F
:10819000B1360108B1360108B1360108B13601081F
:1081A000B1360108B1360108B1360108B13601080F
:1081B000B1360108B1360108B1360108B1360108FF
:1081C000B1360108B1360108B1360108B1360108EF
:1081D000B1360108B136010870B5094D00240646D4
:1081E0002C802B889BB2B34200D370BD2B889BB2EE
:1081F000A342F6D02C88A4B20BF0B4FFF1E700BF85
:10820000CC06002008B501217F200CF047F80121A1
:1082100010200CF067F801214FF400300CF056F8F4
:1082200001214FF480200CF051F8BDE808400248CD
:1082300001210CF04BB800BF0000071010B5364C00
:108240000722204602210BF01DFE204607220321B3
:108250000BF018FE20461223032204210BF024FE0B
:1082600012232046032208210BF01EFE204607227F
:1082700009210BF007FE204607220A210BF002FE1F
:108280002046122303224FF400710BF00DFE12233F
:108290002046032204F580644FF480610BF004FE55
:1082A000204607220A210BF0EDFD204607220B2174
:1082B0000BF0E8FD2046122303224FF480610BF0FF
:1082C000F3FD2046122303224FF4006104F580548D
:1082D0000BF0EAFD012303224FF4007120460BF05E
:1082E000E3FD012303224FF4806120460BF0DCFD07
:1082F0000123032209484FF480710BF0D5FD084B90
:108300000122C3F8A422C3F8A82203F500430022E7
:10831000C3F8A02210BD00BF0000024000180240B8
:108320000080424202494FF000600BF0C7BA00BF24
:108330000080000008B545F255500BF001FF032006
:108340000BF004FF4FF400600BF006FF0BF00AFF88
:10835000BDE808400BF00EBF10B50BF003FF01F0B5
:10836000B9F9574C574A20702178137899427BD03D
:108370002378DBB21370237818071FD5524B1A8865
:1083800012B2052AC3BF1A88053A12B200221A8017
:108390001A884E4B1A804E4B1A780132D2B21A709C
:1083A0001A783E2A84BF3F221A704A4A012111706E
:1083B0001B78494A1C21142001F02AFF23789907D1
:1083C00023D5414A454B11881B8809B2981F814229
:1083D000B6BF138803F1FF3305331BB213803B4B49
:1083E00012881A803A4B1A7802F0FF01002A5ED0F8
:1083F0001A78013AD2B21A70364A012111701B78EC
:10840000354A1C21142001F003FF2378DA0716D522
:10841000334A344B11881B8809B2981F8142B6BF7A
:10842000138803F1FF3305331BB213802E4B1288E0
:108430001A802E4B1A78002A3BD101221A70237819
:108440005B0711D5264B1A8812B2052AC3BF1A88BA
:10845000053A12B200221A801A88234B1A80244A45
:10846000137843F00403137000F02AFD002003F09A
:1084700081FE204B1A7D02F0C00140290AD122F072
:1084800040021A751C4AB3F900101180B3F90A2092
:108490001A4B1A8004F086FB04F018FD184B1B7869
:1084A0000BB108F0DBFDBDE8104009F0A1B8197070
:1084B000A2E70F4A137843F002031370BFE700BF2F
:1084C000C9060020C8060020C2060020BE06002003
:1084D000C7060020C6060020B4CF0108420E0020C7
:1084E000C4060020440E0020C0060020B011002069
:1084F000B1110020500E0020BC060020BA0600205A
:1085000057140020F7B5164D164C2B88164F174EF2
:108510001BB2B3F58C7F1CDA23881BB2B3F58C7FBA
:1085200017DA2B881BB2142B13DD23881BB2142BF4
:108530000FDDDFF83CC03888298832882388BCF8F2
:1085400000C0CDF800C09BB292B289B280B203F0F5
:10855000AFFE3B8833802B88238003B0F0BD00BF83
:10856000BA060020B6060020BC060020B80600208F
:10857000480E00202DE9F04F8BB0FFF743FEFFF7C8
:10858000D1FEFFF75BFE06A80BF026FEC44B4FF4AE
:108590007A721B68B3FBF2F3013BB3F1807F80F08A
:1085A000E6814FF0E022BF4D53610026F0230727FC
:1085B00085F823304FF44070966117610BF048F94D
:1085C0000BF0CEFB0128044640F0D28100F0ACFC59
:1085D000B54DFFF7AFFE00F06FFE01F0FDF801F0C2
:1085E00035FE04F077F904F0C7F94FF4806001F02C
:1085F00087FBAE4A3946204601F00AFE95ED067A21
:10860000DFEDAB7A67EE277A17EE900A13F090FF52
:10861000A84ACDE900010821204601F0F9FDE869EA
:1086200013F086FFA44ACDE900010921204601F09C
:10863000EFFDB5F922300093B5F920309F4A0A21A9
:10864000204601F0E5FD95F82430009320462B7D6F
:108650009B4A0B2101F0DCFD9A4B9B491B889B4AEE
:108660005B080B809A4B1B885B081380994B098829
:108670001980994B12881A80984B1E8004F0C0FB19
:1086800004F0BEFC08F002FE954B1E221A70122167
:10869000944A304601F0BCFD934A1221102001F0AB
:1086A000B7FD924A12211C2001F0B2FD06F076FDC2
:1086B0009DF813308DF814300C238DF8153005A972
:1086C00041F20B733046ADF816300BF031FF9DF8D8
:1086D0000F10002940F06581854A864F262001F061
:1086E00097FD002426460DF10F030DF10E020DF14A
:1086F0000D0103A806F024FD0DF113030DF1120284
:108700000DF1110104A806F032FD9DF8123001931D
:108710009DF81130784A009300219DF810300C200C
:1087200001F076FD9DF80E3001939DF80D30009319
:10873000724A9DF80C3000211C2001F069FD3B8835
:108740009BB21BB100233B80FFF706FE6C4DDFF8A8
:10875000C4812B881BB2002B39DD2B881BB2632B05
:1087600035DCDFF8A0B1BBF800301BB2B3F58C7F6D
:108770002DDDBBF800301BB2B3F5967F27DADFF8AA
:1087800098A10021012388F800108AF800303B8866
:108790009BB213B13980FFF7DFFD0136102E16DDD5
:1087A0004FF000094F4A8AF800901221484601F024
:1087B0002FFD4D4A1221102001F02AFD4B4A1221B3
:1087C0001C2001F025FDA5F80090ABF800902B8847
:1087D0001BB2642B40F3E8802B881BB2C72B00F33D
:1087E000E380484A13881BB2B3F58C7F40F3DC80EA
:1087F00013881BB2B3F5967F80F2D680002108461D
:10880000414A01F005FD414A0121002001F000FD2F
:108810003E4A0221002001F0FBFC3C4A03210020DB
:1088200001F0F6FC3A4A0421002001F0F1FC384A3C
:108830000521002001F0ECFC354A0621002001F062
:10884000E7FC334A0721002001F0E2FC304A08210E
:10885000002001F0DDFC2E4A0921002001F0D8FCA7
:108860002B4A0A21002001F0D3FC294A0B210020C9
:1088700001F0CEFC264A0C21002001F0C9FC244A5C
:108880000D21002001F0C4FC214A0E21002001F03E
:10889000BFFC1F4A0F21002001F0BAFC3EE000BFE0
:1088A0009800002000ED00E0500E0020C1CF01082C
:1088B0000000C842CACF0108D3CF0108DCCF0108AD
:1088C000F3CF0108440E0020C4060020C206002099
:1088D000420E0020C0060020BE060020B406002084
:1088E000C706002007D0010811D0010816D00108E2
:1088F0001BD00108CE06002021D0010831D001088C
:10890000BC060020BA0600203DD0010854D0010862
:108910004AD00108AB11002057140020434A10210F
:10892000002001F075FC0024414B424A1C701121CB
:10893000204601F06DFC404A1221204601F068FCFF
:108940003E4A1221102001F063FC3D4A12211C20F6
:1089500001F05EFC2B881BB2DC2B57DC98F8003052
:1089600013B1384B1B68984700242646BBE6FEE748
:108970000BF0CAF90BF0DEF955200BF02BFA0BF0D7
:1089800035FA0BF0E5F90BF0CDF9BFF34F8FEA683C
:108990002D4B02F4E0621343EB60BFF34F8F00BF37
:1089A000FDE72A4A314698E62B881BB2DC2B33DDE3
:1089B0002B881BB2B3F5877F2EDA254A13881BB2AA
:1089C000B3F58C7F28DD13881BB2B3F5967F23DACD
:1089D000002108461F4A01F01BFC174A1221002003
:1089E00001F016FC154A1221102001F011FC144A66
:1089F00012211C2001F00CFC98F8003043B901262C
:108A0000FFF7AAFC0124FFF77DFD6CE62646CFE7C1
:108A10000C4B1B689847F2E798F8003013B1094BEC
:108A20001B689847002C3FF45EAEE9E74AD0010886
:108A3000571400204BD0010882D0010893D00108C0
:108A400016D00108681400200400FA051ED00108A1
:108A5000BA060020A0D00108BFF34F8F0549064B8E
:108A6000CA6802F4E0621343CB60BFF34F8F00BFCC
:108A7000FDE700BF00ED00E00400FA0510B5314845
:108A800040F225510CF0FCF8C8B12E480CF0DCF88F
:108A90002D4A2E4913889BB2C8540B78022B41D122
:108AA000138801339BB21380294B01221A70294B82
:108AB0002448002240F225511A700CF001F9214897
:108AC00040F227710CF0DCF8B8B1234C234B22881C
:108AD0001B8892B29BB29A4227D22388204A194817
:108AE0009BB2D15C0CF0ACF8238801339BB223809D
:108AF000144840F227710CF0E3F8124840F2266166
:108B00000CF0BEF868B100220E4840F226610CF06D
:108B10009FF80C4840F226610CF0D2F8114B00226D
:108B20001A7010BD00231380C1E70648002240F2EE
:108B300027710CF08DF80348012240F226610CF0F9
:108B400087F8D5E700100140E80C0020D20B002088
:108B5000D40C0020D70C0020E60C0020E40C0020F0
:108B6000D20A0020D30C002010B5334840F2255122
:108B70000CF086F8C8B130480CF066F82F4A30493E
:108B800013889BB2C8540B78022B44D1138801334D
:108B90009BB213802B4B01221A702B4B26480022CC
:108BA00040F225511A700CF08BF8234840F22771DF
:108BB0000CF066F8B8B1254C254B22881B8892B280
:108BC0009BB29A422AD22388224A1B489BB2D15C8C
:108BD0000CF036F8238801339BB22380164840F20C
:108BE00027710CF06DF8144840F226610CF048F83B
:108BF00080B10022104840F226610CF029F80E489E
:108C000040F226610CF05CF8134A00231370134AFB
:108C1000C2F8A03210BD00231380BEE70648002230
:108C200040F227710CF014F80348012240F226614B
:108C30000CF00EF8D2E700BF00440040E20C002028
:108C4000D2090020D40C0020D60C0020E00C00201B
:108C5000DE0C0020D2080020D30C0020000043428C
:108C600010B5314840F225510CF00AF8C8B12E4831
:108C70000BF0EAFF2D4A2E4913889BB2C8540B789B
:108C8000022B41D1138801339BB21380294B01225F
:108C90001A70294B2448002240F225511A700CF01A
:108CA0000FF8214840F227710BF0EAFFB8B1234CCE
:108CB000234B22881B8892B29BB29A4227D22388E8
:108CC000204A19489BB2D15C0BF0BAFF23880133CC
:108CD0009BB22380144840F227710BF0F1FF124839
:108CE00040F226610BF0CCFF68B100220E4840F242
:108CF00026610BF0ADFF0C4840F226610BF0E0FF5F
:108D0000114B00221A7010BD00231380C1E70648E2
:108D1000002240F227710BF09BFF0348012240F232
:108D200026610BF095FFD5E700480040DC0C0020E1
:108D3000D2070020D40C0020D50C0020DA0C002033
:108D4000D80C0020D2060020D30C002038B51A4CD5
:108D500023889BB25BB3194A1378022B1FD1537936
:108D6000032B1CD11649537809788B4201D0212B53
:108D700015D19078D5781179927983F00203434028
:108D80006B404B4083F003039A4208D128400140D6
:108D9000FF2904D1002008F02DFAFFF75DFE22889C
:108DA000064892B2002112F0E5FC00232380054B17
:108DB00000221A7038BD00BFE80C0020D20B002042
:108DC000D20C0020D40C002038B51A4C23889BB25A
:108DD0005BB3194A1378022B1FD15379032B1CD193
:108DE0001649537809788B4201D0212B15D1907800
:108DF000D5781179927983F0020343406B404B4060
:108E000083F003039A4208D128400140FF2904D18E
:108E1000002008F0EFF9FFF71FFE2288064892B203
:108E2000002112F0A7FC00232380054B00221A70BA
:108E300038BD00BFE20C0020D2090020D20C002077
:108E4000D40C002038B51A4C23889BB25BB3194A66
:108E50001378022B1FD15379032B1CD11649537859
:108E600009788B4201D0212B15D19078D5781179D2
:108E7000927983F0020343406B404B4083F003033D
:108E80009A4208D128400140FF2904D1002008F06F
:108E9000B1F9FFF7E1FD2288064892B2002112F0F5
:108EA00069FC00232380054B00221A7038BD00BFE7
:108EB000DC0C0020D2070020D20C0020D40C0020B3
:108EC00008B5134B1B889BB23BB1124B1A78022A90
:108ED00003D900221A70FFF739FF0F4B1B889BB292
:108EE0003BB10E4B1A78022A03D900221A70FFF701
:108EF0006BFF0B4B1B889BB24BB10A4B1A78022AB3
:108F000005D900221A70BDE80840FFF79BBF08BDD5
:108F1000E80C0020D70C0020E20C0020D60C00202A
:108F2000DC0C0020D50C0020874A002330B51380CC
:108F3000864A874D1380874A874C1380874A2B7057
:108F40001380874A23701380864A1380864A1380D1
:108F5000864A1380864A87B0138001A8854B019307
:108F60000AF080FC2B78002B00F09280012B00F09F
:108F7000A880814B019301A80AF074FC7F48072266
:108F800002210AF07FFF7D48072203210AF07AFFC1
:108F90007A481223032204210AF086FF774812231D
:108FA000032208210AF080FF754B019301A80AF003
:108FB00059FC2378012B00F09980022B00F0AD8042
:108FC000BBB9704807220A210AF05CFF6D480722EE
:108FD0000B210AF057FF6B48122303224FF48061E4
:108FE0000AF062FF6748122303224FF400610AF07F
:108FF0005BFF654A65480023CDE902234FF4402218
:10900000ADF8143004920BF045FD012110200BF057
:1090100069F902A95D480BF0B1FD01225B4840F2FD
:1090200025510BF015FE012158480BF0FDFD584865
:109030000BF030FD01214FF400300BF047F902A98D
:1090400053480BF09BFD0122514840F225510BF093
:10905000FFFD01214E480BF0E7FD4E480BF01AFDD5
:1090600001214FF480200BF031F902A949480BF09F
:1090700085FD0122474840F225510BF0E9FD4548A6
:1090800001210BF0D1FD444B01221A7007B030BD15
:109090003A48072209210AF0F5FE384807220A213A
:1090A0000AF0F0FE3548122303224FF400710AF053
:1090B000FBFE3248122303224FF480610AF0F4FED3
:1090C00057E73048072206210AF0DCFE0722114646
:1090D0002C480AF0D7FE2B481223032240210AF025
:1090E000E3FE2848122303228021E7E72B480722CA
:1090F0000A210AF0C7FE294807220B210AF0C2FE06
:109100002648122303224FF480610AF0CDFE234843
:10911000122303224FF4006169E721480722082146
:109120000AF0B0FE1E48072209210AF0ABFE1C48D7
:10913000122303224FF480710AF0B6FE184812235E
:1091400003224FF4007152E7E80C0020E60C0020E7
:10915000D1060020E40C0020D0060020E20C002004
:10916000E00C0020DE0C0020DC0C0020DA0C0020DB
:10917000D80C002025020001260200010000024058
:10918000270200010004024080841E0000100140FC
:109190000044004000480040D20C0020000802407B
:1091A000000C02401FB53B4B1B780121002B45D121
:1091B0004FF400100BF08AF8374B1B78042243BBA6
:1091C000364806210AF05EFE3448042207210AF0E0
:1091D00059FE42230322402130480AF065FE422313
:1091E000032280212D480AF05FFE2D480AF0A0FEE0
:1091F0002C492D4B2A48CDE900132C4B02934FF4F8
:109200008043ADF80C3069460AF0C2FE05B05DF847
:1092100004FB224808210AF035FE204804220921D7
:109220000AF030FE422303224FF480711B480AF0FB
:109230003BFE422303224FF40071D3E74FF480003A
:109240000BF044F8154804220A210AF01BFE1348CB
:1092500004220B210AF016FE1048422303224FF489
:1092600080610AF021FE422303224FF400610B4883
:109270000AF01AFE0E480AF05BFE0B4B094A0C4836
:10928000CDE900230B4B02934FF48043ADF80C3033
:109290006946B9E7F30C00200000002000040240FA
:1092A00000540040400D03000000FFBF58000004C0
:1092B000005800406000000438B5084DFFF772FF09
:1092C0002C78012124B906480AF0CAFE2C7038BD5A
:1092D00004480AF0C5FE0124F8E700BFF30C0020A3
:1092E00000540040005800402DE9F84F454F464CCF
:1092F0009846002305460E4691463B7023604FF486
:10930000003128460AF0FEFE28B123680133B3F588
:109310007A7F2360F3D3DFF8FCA040F6B73B01214E
:1093200028460AF0A9FE00232360514628460AF089
:10933000D5FE002839D006F0FE0600222846314628
:109340000AF0B2FE002323601A4640F6B830A98A1C
:10935000890735D503B12260494628462B8B2B4E11
:109360000AF0B7FE0023236040F6B739314628469D
:109370000AF0B4FE78B3414628460AF0AAFE234E0E
:109380000023236040F6B738314628460AF0A6FE8F
:1093900040B3012128460AF07BFE23680022298879
:1093A000890526D45ABBBDE8F88F236801335B4595
:1093B0002360BAD901233B70BDE8F84FFFF77CBFAB
:1093C000013282424FF00103C1D111492260284687
:1093D0000AF0B2FEA3E7236801334B452360C5D9E9
:1093E0000223E8E72368013343452360CCD90323F4
:1093F000E1E70133B3F57A7F4FF00102CFD3236069
:10940000D1E700BFF20C0020EC0C00208400070024
:10941000000402100100030070B504460D46164614
:109420000AF0A0FE094B1B7853B9094833462A4677
:109430002146FFF759FFBDE870400420FEF7CCBE7F
:10944000044833462A462146F3E700BFF30C0020C8
:1094500000540040005800400A460146A020FFF793
:10946000DBBF00002DE9F84F684F694D002304462B
:109470000E4690463B702B604FF4003120460AF0B8
:1094800041FE28B12B680133B3F57A7F2B60F3D30B
:10949000DFF8889140F6B73A012120460AF0ECFD4A
:1094A00000232B60494620460AF018FE00286FD0A2
:1094B00006F0FE060022204631460AF0F5FD0023A4
:1094C0002B601A4640F6B830A18A89076DD503B1E2
:1094D0002A60504B228B1A80414620460AF0F9FD43
:1094E000DFF83C8100232B6040F6B7394146204627
:1094F0000AF0F4FD002863D0002120460AF0DDFDCB
:10950000DFF8188140F6B739012120460AF0B4FD92
:1095100000232B60414620460AF0E0FD002856D08B
:109520000122314620460AF0BFFDDFF8F8A00023F3
:109530002B6040F6B73B514620460AF0E3FD002879
:109540004CD0002120460AF0B8FD72B60121204619
:10955000238B0AF09DFD62B600232B6041F2873613
:1095600020460AF0C7FD400642D520460AF0B3FD6A
:10957000002306462B601A4640F6B830218889053C
:109580003DD4002B40D1012120460AF096FD09E090
:109590002B68013353452B6084D901233B70FFF7BF
:1095A0008BFE00263046BDE8F88F013282424FF034
:1095B000010389D118492A6020460AF0BDFD6BE7F6
:1095C0002B6801334B452B6090D90223E6E72B68CB
:1095D00001334B452B609DD90323DFE72B68013313
:1095E0005B452B60A7D90C4920460AF0A5FD8BE707
:1095F0002B680133B3422B60B2D90423CEE701328A
:1096000082424FF00103B9D12A60BCE7F20C00207E
:10961000EC0C0020F00C00200004021001000300FC
:10962000840007000200001038B50D4604460AF019
:1096300099FD064B1B782A46214623B90448BDE80C
:109640003840FFF70FBF0348F9E700BFF30C0020D5
:1096500000540040005800400146A020FFF7E4BF3E
:10966000074A084901284FF000031DBF0B70138003
:10967000054A087014BFC2F8A0321380704700BFBB
:10968000F60C0020F80C0020008042420D4B1B78A5
:10969000BBB10D4A138801339BB2138013889BB270
:1096A000C72B0A4B94BF01210021C3F8A012084B1D
:1096B00012881B8892B29BB29A4202D30020FFF715
:1096C000CFBF7047F80C0020F60C0020008042420B
:1096D000F40C0020394BD3F81012394B10B5394C2B
:1096E000002952D11A780132D2B21A701A78092A96
:1096F00007D919702378D80703D4237843F00103DE
:1097000023702E4BD3F80C122F4B002943D11A781B
:109710000132D2B21A701A78092A07D9197023783F
:10972000990703D4237843F002032370234BD3F823
:109730000812264B002934D11A780132D2B21A709D
:109740001A78092A07D9197023785A0703D423787D
:1097500043F0040323701E4BD3F80032012B1D4B42
:1097600025D11A780132D2B21A701A78092A08D98A
:1097700000221A7023781B0703D4237843F00803D0
:109780002370FFF783FF207810BD00221A70237822
:1097900003F0FE03B4E700221A70237803F0FD0300
:1097A000C3E700221A70237803F0FB03D2E70022FC
:1097B0001A70237803F0F703E2E700BF000042428B
:1097C000FD0C0020F90C0020FC0C0020FB0C0020FC
:1097D00000004042FA0C002010B5184C0121312045
:1097E0000AF05CFD10230322042120460AF05CFBF2
:1097F00010230322082120460AF056FB10231946A5
:10980000032220460AF050FB0D48202303220121A9
:109810000AF04AFB012303220A484FF480710AF040
:1098200043FB094A0023C2F8A032084A1370084AD1
:109830001380084B4FF4FA721A8010BD00100240DA
:10984000000002400014024000804242F80C002058
:10985000F60C0020F40C00200C4A0D4910B5002431
:10986000148013889BB2834200D310BD0C800B88F8
:109870009BB2082B04D9138801339BB21380F0E705
:109880000B8801339BB20B80F1E700BF0E0D002067
:109890000C0D002082B04FF0D842ADF80600BDF8A4
:1098A00006309BB2ADF80630BDF806309BB2A2F888
:1098B0007E3002B0704782B04FF0D842ADF806005B
:1098C000BDF806309BB2ADF80630BDF806309BB24D
:1098D000A2F8803002B070474FF0D84382B0B3F89E
:1098E00080309BB2ADF80630BDF8060080B202B001
:1098F000704708B5FFF7CEFF0520FFF7ADFFBDE8C5
:109900000840FFF7E9BF0000034B1A894FF0D84326
:10991000A3F87E20704700BFFE0C002038B50B4D29
:1099200004466889FFF7B6FF200AFFF7C4FFE0B2DC
:10993000FFF7C1FFA889FFF7ADFF080AFFF7BBFFDC
:10994000BDE83840C8B2FFF7B6BF00BFFE0C00202C
:1099500010B535498B79012B4FF036024FF0D843C3
:1099600007D107281AD8DFE800F0565A25520D19FA
:10997000211D0138062811D8DFE800F00414181C56
:10998000494D5100A3F87E208022A3F880200B8847
:109990004A88934217D90A804B8014E0A3F87E20AE
:1099A0000022F2E7A3F87E204022EEE7A3F87E2013
:1099B000C022EAE7A3F87E202022A3F880200B88AB
:1099C0004A889342E7D34889FFF764FF0020FFF7F6
:1099D00072FFFFF770FF0C88013CC4F30F20FFF704
:1099E0006AFFE0B2FFF767FF8889FFF753FF0020A7
:1099F000FFF761FFFFF75FFF49880139C1F30F20CF
:109A0000FFF759FFBDE81040C8B2FFF754BFA3F8F5
:109A10007E206022D1E7A3F87E20A022CDE7A3F824
:109A20007E20E022C9E700BFFE0C0020094A128810
:109A3000824208B50DD9084A12888A4209D9FFF72F
:109A40006DFFFFF761FF054B1A884FF0D843A3F86D
:109A5000802008BD440E0020420E0020480E002049
:109A6000124B1B88834270B5044615461DD9104B16
:109A70001B888B4219D90F4E7089FFF70BFF200A04
:109A8000FFF719FFE0B2FFF716FFB089FFF702FFFB
:109A9000080AFFF710FFC8B2FFF70DFF4FF0D843D9
:109AA0003289A3F87E20A3F8805070BD440E0020B8
:109AB000420E0020FE0C0020002810B5194C034671
:109AC0000CBF03460123A3714FF02C0323814FF0F9
:109AD0002A030BBF4FF4F0724FF4A0724FF4A07141
:109AE0004FF4F071638100202B236280A3812180D9
:109AF000FFF72EFFA3790C49002B0CBF4FF4A07287
:109B00004FF4F0720A8009490CBF4FF4F0734FF420
:109B1000A0730B800649D2080A80064A1B091380ED
:109B200010BD00BFFE0C0020440E0020420E00209D
:109B30003C0E00203A0E002038B50A4B00211A884E
:109B40005C88054608465443FFF7E8FEFFF7DCFE55
:109B50004FF0D843A14200D138BDA3F88050013165
:109B6000F8E700BFFE0C00202DE9F04185B2541B40
:109B70000134BDF818701E46A4B289B24FF0D8481F
:109B8000B14201DDBDE8F0812846FFF7C7FEFFF7CF
:109B9000BBFE00239AB2944202D8013189B2EFE7AA
:109BA000A8F880700133F5E72DE9F04FA2EB00082B
:109BB0001D46B8F1000F85B004460B46A5EB010920
:109BC0001DDC1ED0A0EB02084FF0FF32B9F1000FF0
:109BD00019DC1BD0A1EB05094FF0FF3BC845C2467D
:109BE000B8BFCA4600250AF101012F462E46019151
:109BF0000198A9B281420BDD05B0BDE8F08F0122CA
:109C0000E4E74246E2E74FF0010BE7E7CB46E5E742
:109C100099B2A0B203920293FFF708FFDDE9023286
:109C20004644B2454F44BCBFA6EB0A06A418BA4549
:109C3000BCBFA7EB0A075B440135D9E72DE9F04F1C
:109C4000540085B01646C4F103044FF000081FFA13
:109C500080F91FFA81FAB5B219FA88F2AAEB050B5E
:109C600092B21FFA8BFB10461FFA88F759460392EF
:109C7000FFF7DCFEAAEB07039BB209EB050080B2FD
:109C8000194600930290FFF7D1FE0AEB07039BB23F
:109C9000194602980193FFF7C9FE039A0AEB0501E2
:109CA000A9EB0707104689B2BFB2FFF7BFFE3846DF
:109CB000FFF7BCFEA9EB0505019BADB2194628468E
:109CC000FFF7B4FE59463846FFF7B0FE0099284624
:109CD000FFF7ACFE08F10108002CA9BFA8EB0603B2
:109CE00004EB880404EB830306F1FF36B4BF0634AB
:109CF00003F10A044645AEDA05B0BDE8F08F000076
:109D0000014B1880704700BF480E0020014B18809F
:109D1000704700BF460E002038B5034C25882280CE
:109D2000FFF79EFE258038BD480E00202DE9F0414A
:109D30000C4F0D4DDFF83C800646002417F8013B20
:109D40002888B8F8001033420CBF084B084B1A881B
:109D5000FFF7E2FF2B8801340133082C2B80EDD173
:109D6000BDE8F08146D10108380E0020460E0020E3
:109D7000480E0020360E00204FF41371A0F52C4041
:109D800090FBF1F39A1C01FB13031C2193FBF1F3ED
:109D90009BB2042B10B592B216D803331C219BB290
:109DA00090FBF1F45B0101FB140080B243EA8223D3
:109DB00010286FEA434394BF013002306FEA5343E7
:109DC0009BB280B2184310BD0A2B01D80533E5E7DA
:109DD000102B94BF07330933E0E70000B0F5304F94
:109DE0004FEA102313D3C0B29F2810D95033DBB2EF
:109DF000603003EB4302C3B203EB4213054A12F88F
:109E0000131002EB4302507840EA01207047002013
:109E1000704700BF4ED101081F282DE9F74F14D815
:109E20000D2805D1304B00221A8003B0BDE8F08F19
:109E30000A28FAD12D4A2E48118800884B1C9BB263
:109E400098421380F1D81180ECE7284FDFF8BC90DE
:109E50003B88284E284D2949DFF88C801B014FEAAA
:109E6000401AA9F80030020105EB001506F1100BAD
:109E70000AF1100A4401B8F80030DB000B80204BD7
:109E80001B8843BB2B78337016F8010B0192FFF748
:109E90004DFFB9F80030019A184901335E45A9F821
:109EA000003005F10105E6D1B8F80030154A01335C
:109EB00012889BB29A42A8F80030B6D800230C4909
:109EC000A8F800303B8809885A1C92B2914288BF9A
:109ED00013463B80A9E70C4B1888AB1A08B91B5DE9
:109EE000D1E713F80A30CEE7400E00203E0E0020E6
:109EF0003A0E0020110D00200E110208380E00202D
:109F0000340E00203C0E0020320E0020360E0020C1
:109F10002DE9F84F9E4B1B78002B40F0B280FFF7E5
:109F20005DFF9C4BC0F384229F5CC0F344121A4433
:109F300000F01F0092F820600344152E93F84010A3
:109F400040F2A780012F02D0102F40F09D800B1E01
:109F500018BF01235B00002400228F48DFF86C82C9
:109F60004FF0010E4FF0000C82466FB18B4D35F86B
:109F700012503D44ADB208EB451515F80C9015F89C
:109F80000E5080F800904570B6B1854D90F8009065
:109F900035F813503544ADB208EB451515F80CB043
:109FA00015F80E5049EA0B0980F8009090F80190DE
:109FB00049EA050980F80190B1B17A4D90F8009016
:109FC00035F814500D44ADB208EB451515F80CB03A
:109FD00015F80E5049EA0B0980F8009090F80190AE
:109FE00049EA050980F801900CF1020CBCF1200F40
:109FF00000F102000EF1020EB7D16B4E6B4C3388AC
:10A000006B4F6C4D1B0123804FF000082B881AF812
:10A010001800DB003B80FFF789FE238808F1010868
:10A020000133B8F1100F2380F0D13388DFF8A0910D
:10A030001B0123804FF000082B8819F8180001330A
:10A04000DB003B80FFF772FE238808F10108013333
:10A05000B8F1100F2380EFD12B88574A02331288B2
:10A060009BB29A422B800AD8002354492B80338814
:10A0700009885A1C92B2914288BF13463380BDE8CA
:10A08000F88FFFF779FE4CE7002959D0002403230D
:10A0900062E74B4A012404FA06F3134207D1494A06
:10A0A00013421DD1484A134214BF03240024012F38
:10A0B00001D0102F16D10B1E18BF0123721E5B009A
:10A0C000142A3FF649AFDFE802F01E1E1E1E1E1EB8
:10A0D0001E1E232F2F2F232636363626232F1E0013
:10A0E0000224E4E7A1B3731E142BD0D8DFE803F0F9
:10A0F0002E2E2E2E2E2E2E2E1626262616162626F0
:10A10000261616262E0000293FF426AF052224E746
:10A1100029B9012221E711B902221EE703230622F1
:10A120001BE70123032218E70029FBD0072214E7CD
:10A130000123042211E70029F8D1FAE70323F5E708
:10A140000C460022012308E70123E5E70323DDE7AE
:10A15000A6F109030B2BF4D801A252F823F000BF9B
:10A16000D5A1000823A1000823A1000823A100080D
:10A17000D5A1000849A1000831A1000831A10008BB
:10A1800031A1000849A10008D5A1000823A10008B9
:10A19000100D0020E6D00108110D0020D6D00108D6
:10A1A000CED00108C6D001083E0E0020360E002099
:10A1B000380E0020400E00203C0E00203A0E0020F9
:10A1C000A09032005409010000620C000EE4010866
:10A1D000120D002001239CE770B5054611F050FDDB
:10A1E0000024C6B2B44200D370BD2A57285D002AAD
:10A1F000234604DBFFF710FE0134E4B2F2E72B4400
:10A2000001345B7843EA0020E4B2FFF781FEF3E714
:10A210000CB413B50A4C04AA208052F8043B094C34
:10A220000948019201801946204601F01DFD204693
:10A23000FFF7D2FF02B0BDE8104002B0704700BF88
:10A24000400E0020310D00203E0E002030B50121CF
:10A25000A1B07A200AF022F8012108460AF02AF873
:10A26000CC48012303224FF4004109F01DFECA48E7
:10A2700012230322012109F017FEC74812230322EB
:10A28000022109F011FEC44812230322102109F013
:10A290000BFEC14812230322202109F005FEBE480F
:10A2A000122303224FF4807109F0FEFDBA481223F5
:10A2B00003224FF4007109F0F7FDB748122303227F
:10A2C0004FF4806109F0F0FDB348122303224FF4EC
:10A2D000804109F0E9FDB048122303224FF4004108
:10A2E00009F0E2FDAD4812230322802109F0DCFDD4
:10A2F000AA48122303224FF4807109F0D5FDA74824
:10A30000122303224FF4007109F0CEFDA34812235B
:10A3100003224FF4806109F0C7FDA04812230322F5
:10A320004FF4006109F0C0FD9C48122303224FF452
:10A33000805109F0B9FD9948122303224FF40051CE
:10A3400009F0B2FD9548122303224FF4804109F031
:10A35000ABFD9248122303224FF4004109F0A4FD03
:10A360008F48122303224FF4805109F09DFD1223E0
:10A370008C4803224FF4805109F096FD86480C2248
:10A38000002109F07FFD84480C22012109F07AFDAB
:10A3900081480C22042109F075FD7F480C2205211B
:10A3A00009F070FD7C480C22082109F06BFD7A4809
:10A3B0000C22092109F066FD77480C220A2109F0D8
:10A3C00061FD75480C220E2109F05CFD72480C22DB
:10A3D0000F2109F057FD71480C22072109F052FDA9
:10A3E0006E480C22082109F04DFD6C480C22092111
:10A3F00009F048FD69480C220A2109F043FD67482D
:10A400000C220B2109F03EFD0C221146634809F095
:10A4100039FD62480C220D2109F034FD5F480C2201
:10A420000E2109F02FFD5D480C220F2109F02AFDB5
:10A430000C2211465A4809F025FD0C2211465948B4
:10A4400009F020FD00240F23CDE903343C23CDE99E
:10A4500005340923CDE90A340823CDE90C3410234F
:10A46000CDE914344FF48053CDE91A344FF48043CE
:10A47000CDE91C3403AB06251E9311A80AAB1F932C
:10A48000CDE90744CDE90E44CDE91154CDE9164498
:10A49000CDE918440994109413940AF019FC012191
:10A4A00028460AF075FC3220FDF796FE4FF0D8439F
:10A4B0000122A3F87E403220A3F88020FDF78CFE15
:10A4C0002046FFF716FAA0F1FF03374C9BB2B3F515
:10A4D0007F4FA08002D2B0F5134F7DD1D320FFF77C
:10A4E000D9F9FFF7F9F9FFF7F7F9FFF7F5F90246A0
:10A4F000FFF7F2F940EA022080B249F24133984274
:10A50000A08069D0BF20FFF7C5F9FFF7E5F9FFF795
:10A51000E3F9FFF7E1F9FFF7DFF90246FFF7DCF9AE
:10A5200040EA022080B246F604039842A08053D04D
:10A53000D420FFF7AFF9FFF7CFF9FFF7CDF9FFF719
:10A54000CBF90246FFF7C8F940EA022080B245F293
:10A5500010339842A0803FD04FF45A40FFF79AF949
:10A56000FFF7BAF94FF45B40FFF794F9FFF7B4F93E
:10A5700001464FF45C40FFF78DF9FFF7ADF940EA73
:10A58000012080B2B0F5004F45F210530ED1A380E8
:10A5900022E000BF00040240000C02400010024014
:10A5A0000014024000180240FE0C00209842A080D7
:10A5B00012D0A120FFF76EF9FFF78EF9FFF78CF9A3
:10A5C0000246FFF789F940EA022080B245F2617342
:10A5D000984200F07887A080F94BDA6922F00F02E8
:10A5E000DA61DA6922F47062DA61DA6942F0030250
:10A5F000DA61DA6942F40072DA61ED20FFF74AF9B4
:10A600000120FFF758F9FE20FFF755F9EE20FFF77C
:10A6100041F9DE20FFF74FF92120FFF74CF9F12037
:10A62000FFF738F90120FFF746F9DF20FFF732F98D
:10A630001020FFF740F9C420FFF72CF98F20FFF717
:10A640003AF9C620FFF726F90020FFF734F9E22097
:10A65000FFF731F9FFF72FF9FFF72DF9BF20FFF7CB
:10A6600019F9AA20FFF727F9B020FFF713F90D20F9
:10A67000FFF721F90020FFF71EF90D20FFF71BF966
:10A680000020FFF718F91120FFF715F90020FFF758
:10A6900012F91920FFF70FF90020FFF70CF921201C
:10A6A000FFF709F90020FFF706F92D20FFF703F95E
:10A6B0000020FFF700F93D20FFF7FDF80020FFF72D
:10A6C000FAF85D20FFF7F7F80020FFF7F4F85D20B7
:10A6D000FFF7F1F80020FFF7EEF8B120FFF7DAF806
:10A6E0008020FFF7E8F80020FFF7E5F88B20FFF760
:10A6F000E2F80020FFF7DFF89620FFF7DCF80020F3
:10A70000FFF7D9F8B220FFF7C5F80020FFF7D3F81C
:10A71000FFF7D1F80220FFF7CEF80020FFF7CBF8C3
:10A720000320FFF7C8F80020FFF7C5F8B320FFF7B4
:10A73000B1F80020FFF7BFF8FFF7BDF8FFF7BBF84F
:10A74000FFF7B9F8FFF7B7F8FFF7B5F8FFF7B3F879
:10A75000FFF7B1F8FFF7AFF8FFF7ADF8FFF7ABF889
:10A76000FFF7A9F8FFF7A7F8FFF7A5F8FFF7A3F899
:10A77000FFF7A1F8FFF79FF8FFF79DF8FFF79BF8A9
:10A78000FFF799F8FFF797F8FFF795F8FFF793F8B9
:10A79000FFF791F8B420FFF77DF88B20FFF78BF8D7
:10A7A0000020FFF788F89620FFF785F80020FFF7D4
:10A7B00082F8A120FFF77FF80020FFF77CF8B52092
:10A7C000FFF768F80220FFF776F80020FFF773F82C
:10A7D0000320FFF770F80020FFF76DF80420FFF763
:10A7E0006AF80020FFF767F8B620FFF753F800205B
:10A7F000FFF761F8FFF75FF8B720FFF74BF800208D
:10A80000FFF759F8FFF757F83F20FFF754F80020FB
:10A81000FFF751F85E20FFF74EF80020FFF74BF8E6
:10A820006420FFF748F80020FFF745F88C20FFF779
:10A8300042F80020FFF73FF8AC20FFF73CF800207B
:10A84000FFF739F8DC20FFF736F80020FFF733F880
:10A850007020FFF730F80020FFF72DF89020FFF769
:10A860002AF80020FFF727F8EB20FFF724F8002054
:10A87000FFF721F8DC20FFF71EF80020FFF71BF898
:10A88000B820FFF707F80020FFF715F8FFF713F8D7
:10A89000FFF711F8FFF70FF8FFF70DF8FFF70BF8C8
:10A8A000FFF709F8FFF707F8BA20FEF7F3FF2420B7
:10A8B000FFF701F80020FEF7FEFFFEF7FCFFFEF7B2
:10A8C000FAFFC120FEF7E6FF2020FEF7F4FF00208C
:10A8D000FEF7F1FF5420FEF7EEFF0020FEF7EBFF3E
:10A8E000FF20FEF7E8FF0020FEF7E5FFC220FEF79D
:10A8F000D1FF0A20FEF7DFFF0020FEF7DCFF042077
:10A90000FEF7D9FF0020FEF7D6FFC320FEF7C2FFF7
:10A910003C20FEF7D0FF0020FEF7CDFF3A20FEF7E7
:10A92000CAFF0020FEF7C7FF3920FEF7C4FF002052
:10A93000FEF7C1FF3720FEF7BEFF0020FEF7BBFF8A
:10A940003C20FEF7B8FF0020FEF7B5FF3620FEF7EB
:10A95000B2FF0020FEF7AFFF3220FEF7ACFF002071
:10A96000FEF7A9FF2F20FEF7A6FF0020FEF7A3FFAA
:10A970002C20FEF7A0FF0020FEF79DFF2920FEF708
:10A980009AFF0020FEF797FF2620FEF794FF002095
:10A99000FEF791FF2420FEF78EFF0020FEF78BFFCD
:10A9A0002420FEF788FF0020FEF785FF2320FEF716
:10A9B00082FF0020FEF77FFF3C20FEF77CFF01E0D6
:10A9C000000100A00020FEF776FF3620FEF773FF9F
:10A9D0000020FEF770FF3220FEF76DFF0020FEF72B
:10A9E0006AFF2F20FEF767FF0020FEF764FF2C2090
:10A9F000FEF761FF0020FEF75EFF2920FEF75BFFF8
:10AA00000020FEF758FF2620FEF755FF0020FEF736
:10AA100052FF2420FEF74FFF0020FEF74CFF2420BA
:10AA2000FEF749FF0020FEF746FF2320FEF743FF15
:10AA30000020FEF740FFC420FEF72CFF6220FEF747
:10AA40003AFF0020FEF737FF0520FEF734FF002015
:10AA5000FEF731FF8420FEF72EFF0020FEF72BFFCC
:10AA6000F020FEF728FF0020FEF725FF1820FEF754
:10AA700022FF0020FEF71FFFA420FEF71CFF00208E
:10AA8000FEF719FF1820FEF716FF0020FEF713FF50
:10AA90005020FEF710FF0020FEF70DFF0C20FEF700
:10AAA0000AFF0020FEF707FF1720FEF704FF002033
:10AAB000FEF701FF9520FEF7FEFE0020FEF7FBFEED
:10AAC000F320FEF7F8FE0020FEF7F5FEE620FEF785
:10AAD000F2FE0020FEF7EFFEC520FEF7DBFE32207F
:10AAE000FEF7E9FE0020FEF7E6FE4420FEF7E3FE57
:10AAF0000020FEF7E0FE6520FEF7DDFE0020FEF7F9
:10AB0000DAFE7620FEF7D7FE0020FEF7D4FE88207E
:10AB1000FEF7D1FE0020FEF7CEFEC620FEF7BAFEFD
:10AB20002020FEF7C8FE0020FEF7C5FE1720FEF726
:10AB3000C2FE0020FEF7BFFE0120FEF7BCFE002093
:10AB4000FEF7B9FEC720FEF7A5FE0020FEF7B3FE14
:10AB5000FEF7B1FEFEF7AFFEFEF7ADFEC820FEF732
:10AB600099FE0020FEF7A7FEFEF7A5FEFEF7A3FE66
:10AB7000FEF7A1FEC920FEF78DFE0020FEF79BFE2A
:10AB8000FEF799FEFEF797FEFEF795FEFEF793FEA1
:10AB9000FEF791FEFEF78FFEFEF78DFEFEF78BFEB1
:10ABA000FEF789FEFEF787FEFEF785FEFEF783FEC1
:10ABB000FEF781FEFEF77FFEFEF77DFEE020FEF74A
:10ABC00069FE1620FEF777FE0020FEF774FE1C20BB
:10ABD000FEF771FE0020FEF76EFE2120FEF76BFEF1
:10ABE0000020FEF768FE3620FEF765FE0020FEF727
:10ABF00062FE4620FEF75FFE0020FEF75CFE52205C
:10AC0000FEF759FE0020FEF756FE6420FEF753FEC5
:10AC10000020FEF750FE7A20FEF74DFE0020FEF7E2
:10AC20004AFE8B20FEF747FE0020FEF744FE9920E7
:10AC3000FEF741FE0020FEF73EFEA820FEF73BFE99
:10AC40000020FEF738FEB920FEF735FE0020FEF7A3
:10AC500032FEC420FEF72FFE0020FEF72CFECA2095
:10AC6000FEF729FE0020FEF726FED220FEF723FE87
:10AC70000020FEF720FED920FEF71DFE0020FEF783
:10AC80001AFEE020FEF717FE0020FEF714FEF32068
:10AC9000FEF711FE0020FEF70EFEE120FEF7FAFDA2
:10ACA0001620FEF708FE0020FEF705FE1C20FEF72A
:10ACB00002FE0020FEF7FFFD2220FEF7FCFD002033
:10ACC000FEF7F9FD3620FEF7F6FD0020FEF7F3FD56
:10ACD0004520FEF7F0FD0020FEF7EDFD5220FEF7C7
:10ACE000EAFD0020FEF7E7FD6420FEF7E4FD00200A
:10ACF000FEF7E1FD7A20FEF7DEFD0020FEF7DBFD2A
:10AD00008B20FEF7D8FD0020FEF7D5FD9920FEF739
:10AD1000D2FD0020FEF7CFFDA820FEF7CCFD0020DD
:10AD2000FEF7C9FDB920FEF7C6FD0020FEF7C3FD02
:10AD3000C420FEF7C0FD0020FEF7BDFDCA20FEF7CF
:10AD4000BAFD0020FEF7B7FDD220FEF7B4FD0020CB
:10AD5000FEF7B1FDD820FEF7AEFD0020FEF7ABFDFB
:10AD6000E020FEF7A8FD0020FEF7A5FDF320FEF78A
:10AD7000A2FD0020FEF79FFDE220FEF78BFD0520DF
:10AD8000FEF799FD0020FEF796FD0B20FEF793FDE0
:10AD90000020FEF790FD1B20FEF78DFD0020FEF742
:10ADA0008AFD3420FEF787FD0020FEF784FD442055
:10ADB000FEF781FD0020FEF77EFD4F20FEF77BFDB4
:10ADC0000020FEF778FD6120FEF775FD0020FEF7FC
:10ADD00072FD7920FEF76FFD0020FEF76CFD8820E4
:10ADE000FEF769FD0020FEF766FD9720FEF763FD84
:10ADF0000020FEF760FDA620FEF75DFD0020FEF7B7
:10AE00005AFDB720FEF757FD0020FEF754FDC22083
:10AE1000FEF751FD0020FEF74EFDC720FEF74BFD6B
:10AE20000020FEF748FDD120FEF745FD0020FEF78B
:10AE300042FDD620FEF73FFD0020FEF73CFDDD2061
:10AE4000FEF739FD0020FEF736FDF320FEF733FD57
:10AE50000020FEF730FDE320FEF71CFD0520FEF785
:10AE60002AFD0020FEF727FD0A20FEF724FD002022
:10AE7000FEF721FD1C20FEF71EFD0020FEF71BFD46
:10AE80003320FEF718FD0020FEF715FD4420FEF7E5
:10AE900012FD0020FEF70FFD5020FEF70CFD0020F4
:10AEA000FEF709FD6220FEF706FD0020FEF703FD18
:10AEB0007820FEF700FD0020FEF7FDFC8820FEF75D
:10AEC000FAFC0020FEF7F7FC9720FEF7F4FC0020C8
:10AED000FEF7F1FCA620FEF7EEFC0020FEF7EBFCEF
:10AEE000B720FEF7E8FC0020FEF7E5FCC220FEF7E5
:10AEF000E2FC0020FEF7DFFCC720FEF7DCFC0020B0
:10AF0000FEF7D9FCD120FEF7D6FC0020FEF7D3FCDB
:10AF1000D520FEF7D0FC0020FEF7CDFCDD20FEF7AB
:10AF2000CAFC0020FEF7C7FCF320FEF7C4FC00209B
:10AF3000FEF7C1FCE420FEF7ADFC0120FEF7BBFCF0
:10AF40000020FEF7B8FC0120FEF7B5FC0020FEF75C
:10AF5000B2FC0220FEF7AFFC0020FEF7ACFC2A207A
:10AF6000FEF7A9FC0020FEF7A6FC3C20FEF7A3FCA0
:10AF70000020FEF7A0FC4B20FEF79DFC0020FEF712
:10AF80009AFC5D20FEF797FC0020FEF794FC7420ED
:10AF9000FEF791FC0020FEF78EFC8420FEF78BFC70
:10AFA0000020FEF788FC9320FEF785FC0020FEF7CA
:10AFB00082FCA220FEF77FFC0020FEF77CFCB32081
:10AFC000FEF779FC0020FEF776FCBE20FEF773FC4E
:10AFD0000020FEF770FCC420FEF76DFC0020FEF799
:10AFE0006AFCCD20FEF767FC0020FEF764FCD3204E
:10AFF000FEF761FC0020FEF75EFCDD20FEF75BFC47
:10B000000020FEF758FCF320FEF755FC0020FEF769
:10B0100052FCE520FEF73EFC0020FEF74CFCFEF75C
:10B020004AFCFEF748FCFEF746FC0220FEF743FC14
:10B030000020FEF740FC2920FEF73DFC0020FEF733
:10B040003AFC3C20FEF737FC0020FEF734FC4B2096
:10B05000FEF731FC0020FEF72EFC5D20FEF72BFCF6
:10B060000020FEF728FC7420FEF725FC0020FEF7E8
:10B0700022FC8420FEF71FFC0020FEF71CFC93201E
:10B08000FEF719FC0020FEF716FCA220FEF713FCC9
:10B090000020FEF710FCB320FEF70DFC0020FEF7A9
:10B0A0000AFCBE20FEF707FC0020FEF704FCC420CB
:10B0B000FEF701FC0020FEF7FEFBCD20FEF7FBFBB8
:10B0C0000020FEF7F8FBD320FEF7F5FB0020FEF78B
:10B0D000F2FBDC20FEF7EFFB0020FEF7ECFBF32099
:10B0E000FEF7E9FB0020FEF7E6FBE620FEF7D2FBC9
:10B0F0001120FEF7E0FB0020FEF7DDFB3420FEF719
:10B10000DAFB0020FEF7D7FB5620FEF7D4FB002029
:10B11000FEF7D1FB7620FEF7CEFB0020FEF7CBFB3F
:10B120007720FEF7C8FB0020FEF7C5FB6620FEF780
:10B13000C2FB0020FEF7BFFB8820FEF7BCFB00200F
:10B14000FEF7B9FB9920FEF7B6FB0020FEF7B3FB34
:10B15000BB20FEF7B0FB0020FEF7ADFB9920FEF709
:10B16000AAFB0020FEF7A7FB6620FEF7A4FB002049
:10B17000FEF7A1FB5520FEF79EFB0020FEF79BFB90
:10B180005520FEF798FB0020FEF795FB4520FEF7C3
:10B1900092FB0020FEF78FFB4320FEF78CFB002084
:10B1A000FEF789FB4420FEF786FB0020FEF783FBB9
:10B1B000E720FEF76FFB3220FEF77DFB0020FEF755
:10B1C0007AFB5520FEF777FB0020FEF774FB762014
:10B1D000FEF771FB0020FEF76EFB6620FEF76BFBAF
:10B1E0000020FEF768FB6720FEF765FB0020FEF7F6
:10B1F00062FB6720FEF75FFB0020FEF75CFB872009
:10B20000FEF759FB0020FEF756FB9920FEF753FB93
:10B210000020FEF750FBBB20FEF74DFB0020FEF7A1
:10B220004AFB9920FEF747FB0020FEF744FB7720FE
:10B23000FEF741FB0020FEF73EFB4420FEF73BFB00
:10B240000020FEF738FB5620FEF735FB0020FEF706
:10B2500032FB2320FEF72FFB0020FEF72CFB3320D0
:10B26000FEF729FB0020FEF726FB4520FEF723FB17
:10B270000020FEF720FBE820FEF70CFB0020FEF785
:10B280001AFBFEF718FB9920FEF715FB0020FEF7CE
:10B2900012FB8720FEF70FFB0020FEF70CFB882037
:10B2A000FEF709FB0020FEF706FB7720FEF703FB05
:10B2B0000020FEF700FB6620FEF7FDFA0020FEF7F7
:10B2C000FAFA8820FEF7F7FA0020FEF7F4FAAA202F
:10B2D000FEF7F1FA0020FEF7EEFABB20FEF7EBFADC
:10B2E0000020FEF7E8FA9920FEF7E5FA0020FEF7C5
:10B2F000E2FA6620FEF7DFFA0020FEF7DCFA5520BE
:10B30000FEF7D9FA0020FEF7D6FA5520FEF7D3FA59
:10B310000020FEF7D0FA4420FEF7CDFA0020FEF719
:10B32000CAFA4420FEF7C7FA0020FEF7C4FA5520F7
:10B33000FEF7C1FA0020FEF7BEFAE920FEF7AAFAEE
:10B34000AA20FEF7B8FA0020FEF7B5FAFEF7B3FA26
:10B35000FEF7B1FAFEF79EFAAA20FEF7ACFACF206C
:10B36000FEF798FA0020FEF7A6FAFEF7A4FAFEF719
:10B37000A2FAFEF7A0FAFEF79EFAFEF79CFAFEF795
:10B380009AFAFEF798FAFEF796FAFEF794FAFEF7A5
:10B3900092FAFEF790FAFEF78EFAFEF78CFAFEF7B5
:10B3A0008AFAFEF788FAFEF786FAF020FEF772FABC
:10B3B0000020FEF780FA5020FEF77DFA0020FEF70D
:10B3C0007AFAFEF778FAFEF776FAF320FEF762FAD9
:10B3D0000020FEF770FAF920FEF75CFA0620FEF76F
:10B3E0006AFA1020FEF767FA2920FEF764FA0020B7
:10B3F000FEF761FA3A20FEF74DFA5520FEF75BFAA8
:10B400001120FEF747FA6420FCF7E6FE2920FEF73C
:10B4100041FA3520FEF73EFA0020FEF74CFA5120A3
:10B42000FEF738FAFF20FEF746FA5320FEF732FA0D
:10B430002C20FEF740FA5520FEF72CFA8220FEF76A
:10B440003AFA2C20FEF726FA0020FEF735FB204BB7
:10B4500020490122C3F8BC22A379002B0CBF4FF472
:10B46000A0724FF4F0720A801B490CBF4FF4F073C6
:10B470004FF4A0730B80194900250D8018490D80E9
:10B4800018490D8018490D8018490D701849D208C7
:10B490000A80184A1B09138000F0FCFB164B4FF67C
:10B4A000FF721A80154B28461D80FEF745FB638806
:10B4B000019323880093A388114A29462846FEF762
:10B4C000A7FE21B030BD41F66313FFF760B800BF9F
:10B4D00000804042440E0020420E0020400E00201A
:10B4E0003E0E0020320E0020340E0020100D0020F1
:10B4F0003C0E00203A0E0020480E0020460E002090
:10B50000ABD001080B6803F8010BC0B20B607047A9
:10B51000002070472DE9F04F91B00E4601901C4677
:10B5200015464FF0000916F8010B48B9A36A0198B7
:10B53000984700280CBF4846002011B0BDE8F08FA6
:10B54000252805D0636A0199984709F10109EAE7BE
:10B550004FF0000A16E02D2B0DD0302B40D01646B0
:10B5600000270A21A3F13002092A20D816F8013B4E
:10B5700001FB0727F6E72AF4807A2AF0010A4AF04D
:10B58000010A1646324612F8013B2B2B1FD0E2D897
:10B59000202B1FD0232B20D02A2BE0D155F8047B61
:10B5A0001378002FBCBF7F428AF0010A02362E2B8F
:10B5B00021D133782A2B16D0721C00210A26A3F140
:10B5C000300009284AD94AF0100AA16012E04AF076
:10B5D000020AD6E74AF0040AD3E74AF0080AD0E79D
:10B5E0004AF4807ACDE755F8041B7378002906F1F8
:10B5F0000202E8DA164623F020024C2A33D13378CF
:10B6000003F0DF024C2A03BF73784AF0400A023687
:10B61000013618BF4AF0200A782B75DC572B29DC3D
:10B62000002B00F0AE8023F00202452A6CD11AF004
:10B63000100F04BF0622A2601AF0020F4AF4007134
:10B6400005F1040540F0DF81B748B84A1AF0040F4D
:10B6500008BF024662608A46002233E112F8013BCD
:10B6600006FB0101ABE7682B04BF16F8013B4AF06B
:10B67000800AD1E7A3F15802202A45D801A151F848
:10B6800022F000BF3FB8000809B7000809B700085A
:10B6900009B7000809B7000809B7000809B700088A
:10B6A00009B7000809B7000809B7000809B700087A
:10B6B00009B70008ADB900082FB600082FB600087A
:10B6C0002FB6000809B70008ADB9000809B700088F
:10B6D00009B7000809B7000809B7000887B70008CC
:10B6E0004DB90008A7B8000809B7000809B7000855
:10B6F000ABB7000809B7000879B9000809B7000816
:10B7000009B7000877B8000855F8043B02931AF00F
:10B71000010807F1FF3B19D11AF4807F0CBF4FF0ED
:10B72000200A4FF0300ABBF1010B636A1AD5012FD2
:10B730003B46B8BF0123002FC7F1010B03F1FF33D4
:10B74000D8BF4FF0000B023F9944BB44DDE9011024
:10B75000636A984709F10109B8F1000F3FF4E3AEBD
:10B760005F4607E0019950469847DCE7636A019914
:10B7700020209847013FF9D5BBF1000FA8BFD9445D
:10B78000D1E6013ECFE61AF0800F2B6803D0A3F874
:10B7900000900435C7E61AF0400F1ABF4FEAE9726D
:10B7A000C3E90092C3F80090F3E71AF0100F55F8C0
:10B7B000048B0AD0A3684FF0000B9B4509DA18F8F8
:10B7C0000B2032B10BF1010BF7E7404610F058FAAD
:10B7D00083461AF00103A7EB0B0702930ED11AF46C
:10B7E000807F0CBF202330230393BA46BAF1010AAD
:10B7F0000FD527EAE773013F9944FF1A08EB0B0ABC
:10B80000C2450BD1029BD944002B3FF48CAEB84605
:10B810000EE0636A019903989847E7E7636A019924
:10B8200018F8010B9847EBE7636A019920209847C5
:10B83000B8F10108F8D5002FA8BFB94473E61AF093
:10B84000400F1FBF073525F00705F5E80201C4E9E1
:10B850000E01374908BF55F8042BE16218BF0022DA
:10B8600034491AF0800F18BF92B21AF0080F2E4810
:10B8700008BF014693E01AF0400F1DBF073525F0C1
:10B880000705F5E8020155F8042B1CBFC4E90E01B9
:10B8900000222949E1621AF0800F18BF92B22749AD
:10B8A0001AF0080FE3E72048234955F8042BE1621A
:10B8B0001AF0080F224908BF014661600821A16003
:10B8C0004AF0100A4FF0FF311AF4047FC4E9031163
:10B8D00004BF0121A160582B2763C4F800A000F029
:10B8E0009480643B142B00F24E811648012199404C
:10B8F0000840002840F020811348014040F0858036
:10B900000B2B40F040811AF0400840F0F98008AB62
:10B91000002A00F0FC8002F00701303103F8011B1F
:10B9200008F10108D208F3E781D0010880D00108AE
:10B930001C1902080E1902082D1902081119020813
:10B940001419020821000200001010001AF0400F24
:10B950001FBF073525F00705F5E80201002214BFD7
:10B96000C4E90E0155F8042BB0491AF0800F18BF36
:10B9700092B21AF0080F7AE71AF0400F1FBF07358E
:10B9800025F00705F5E80201002214BFC4E90E0105
:10B9900055F8042BA6491AF0800F18BF92B21AF07E
:10B9A000100F61608ED02AF4807A8BE71AF0400F76
:10B9B0001AD0073525F007021546526855F8081BBE
:10B9C000002A09DBC4E90E1200221AF0020F18D176
:10B9D00098491AF0040F4AE7494262EB4202C4E96F
:10B9E0000E1200229449DAE755F8041B1AF0800F72
:10B9F00018BF09B281EAE1720029A2EBE172E4DA30
:10BA0000F0E78E49CBE78D4A24E61AF040080BD1C7
:10BA100008AB8AB102F00F01E06A415C03F8011B38
:10BA200008F101081209F4E7D4E90E3108AA4FF031
:10BA3000000853EA010055D11AF40073059308BFBA
:10BA4000A368606806BFA3EB080323EAE37300233F
:10BA5000029310F015F9029B3F1A4344A7EB030B26
:10BA60000AF00103049340F201131AEA030F00F0F5
:10BA7000A1800027636819460A4612F8010B03905B
:10BA8000002840F09980FB1ACF18049B8BB91AF458
:10BA9000807F0CBF202330230693DA46BAF1010AD7
:10BAA00040F194802BEAEB730BF1FF321F44A2EBC1
:10BAB000030B059B002B40F0A780DDF808A0BAF12E
:10BAC000010A80F0BD80029B3B4408EB0307B8F1FC
:10BAD0000108C0F09C8008AA636A019912F8080066
:10BAE0009847F4E703F00F0CE06A1B0910F80C000C
:10BAF00002F8010B43EA017308F10108090998E70C
:10BB0000D4E90E2008AB884652EA000106D11AF0AB
:10BB1000080F91D0A368013BA3608DE702F0070CEA
:10BB2000E16AD20811F80C1003F8011B42EA4072D6
:10BB300008F10108C008E7E71AF040080FD108AB88
:10BB40000A21002A3FF478AFB2FBF1F001FB10228A
:10BB5000303203F8012B08F101080246F1E7D4E97D
:10BB60000E010DF1200B4FF0000850EA01033FF4E5
:10BB700063AF0A22002311F07BF830320BF8012B5F
:10BB800008F10108F1E742F63063ADF820303023C8
:10BB90008DF822304FF003084EE7636A01992020A8
:10BBA0009847013FF9D52BEAEB770BF1FF33A3EB75
:10BBB000070B5FE75F46F4E7CDE906320199636A58
:10BBC00003989847079A069B114655E7636A0199BF
:10BBD0000698984762E7039B08AAD05C3C280BD0E4
:10BBE0003E281DD0636A01999847013709E0636ACE
:10BBF0000199302001379847E368013B002BE3604F
:10BC0000F5DA039B01330393039B9845E3D1049B2F
:10BC10003BBBB94487E4636A0199302001379847F8
:10BC20002369013B002B2361F5DAEAE716190208C4
:10BC300081D0010880D001081A19020818190208D9
:10BC4000636A01993020984739E7636A0199202097
:10BC50009847B8F10108F8D5BBF1000FA8BF5F44C1
:10BC6000D7E7D846F5E700BF10B592B0074B0B9366
:10BC7000074B0C930024019002AB01A80A94FFF734
:10BC800049FC019B1C7012B010BD00BF05B5000837
:10BC900011B500082DE9F04F284B29491E88294B82
:10BCA0001F88294B87B04FF4F812CDE902236FF0BB
:10BCB0001F03CDE904134FEA560B4FEA570A4FF022
:10BCC000000808F04FFA06AA08F0070302EB430346
:10BCD00008F1010833F8100CFEF712F80FF07AFCA7
:10BCE00090FBF6F303FB16040FF074FC90FBF7F3E4
:10BCF00003FB17050FF06EFC81460FF06BFC99FB00
:10BD0000F6F1A4EB0B0406FB1192A5EB0A050F4913
:10BD100090FBF7F3A4B2ADB203FB170009880091C2
:10BD20002B1822441BB212B229B220B2FDF71CFF1D
:10BD3000B8F57A7FC5D107B0BDE8F08F440E00207A
:10BD400000F81FF8420E0020E007FF07480E002011
:10BD50002DE9F04F85B005464FF478401C460E465D
:10BD6000BDF838A0BDF83CB0BDF84080BDF84490A7
:10BD7000BDF848700392FDF7C3FF164A0721012062
:10BD8000FEF746FA2B46144A009608210120FEF7DA
:10BD90003FFA039B114A009409210120FEF738FA6B
:10BDA00053460F4ACDF800B00A210120FEF730FAC1
:10BDB00043460C4ACDF800900B210120FEF728FAEB
:10BDC000094A3B460C21012005B0BDE8F04FFEF7C3
:10BDD0001FBA00BF3E1902084B1902085819020881
:10BDE00065190208721902087F19020838B52F4D2B
:10BDF0002DED028BD5ED067A9FED2D8A67EE887AC0
:10BE00002820FDEEE77A17EE904AE1B2FDF724FB19
:10BE1000C4F307212920FDF71FFBC4F307412A20A3
:10BE2000FDF71AFB210E2B20FDF716FBD5ED077A47
:10BE300067EE887A2C20FDEEE77A17EE904AE1B2A1
:10BE4000FDF70AFBC4F307212D20FDF705FBC4F322
:10BE500007412E20FDF700FB210E2F20FDF7FCFAF5
:10BE6000B5F9204095F820103020FDF7F5FAC4F31D
:10BE700007213120FDF7F0FAB5F9224095F822109C
:10BE80003220FDF7E9FAC4F307213320FDF7E4FA85
:10BE900095F824103420FDF7DFFABDEC028BAA21BF
:10BEA000BDE838403520FDF7D7BA00BF500E00205E
:10BEB00020BCBE4C38B535202DED028BFDF7CCFBF8
:10BEC000AA2867D12820FDF7C7FB002460F30704E8
:10BED0002920FDF7C1FB60F30F242A20FDF7BCFBEE
:10BEE00060F317442B20FDF7B7FB60F31F6407EEE8
:10BEF000904A9FED298A294DB8EEE77A2C20C7EEAB
:10BF0000087AC5ED067AFDF7A7FB60F307042D203C
:10BF1000FDF7A2FB60F30F242E20FDF79DFB60F3DD
:10BF200017442F20FDF798FB60F31F6407EE904A3B
:10BF3000F8EEE77A302087EE887A4FF0000485ED3E
:10BF4000077AFDF789FB60F307043120FDF784FBD6
:10BF500060F30F2432202C84FDF77EFB60F307048E
:10BF60003320FDF779FB60F30F2434206C84FDF758
:10BF700073FB0B4B002814BF9021D0211970094B83
:10BF800085F8240014BFD02290221A700120BDEC45
:10BF9000028B38BD0020FAE720BCBE4C500E0020BA
:10BFA00002000020010000202DE9F0410E4E044661
:10BFB00008254FF0000801270C4B14F0800F14BF28
:10BFC000C3F8AC72C3F8AC820120C6F88082013D90
:10BFD000FDF742FC640015F0FF05E4B2C6F880727C
:10BFE000EAD1BDE8F08100BF0080404200804242BB
:10BFF0002DE9F0411B4B1C4D0024C5F88042C3F8CD
:10C00000AC42A3F5C0330127C3F8B442FFF7CCFF1D
:10C010000620FDF721FC0120C5F88042FDF71CFC3D
:10C02000C5F880723846FDF717FC1026C5F8804227
:10C03000A046C5F880820120FDF70EFCC5F880728D
:10C04000D5F808326400A4B20BB10134A4B2013EA9
:10C0500016F0FF06EDD1054B0122C3F8B4222009EA
:10C06000BDE8F08100804242008040420000414231
:10C07000F0B585B001AD06462F4605243046FFF7E2
:10C08000B7FF013CA4B227F8020B002CF6D1013413
:10C09000A4B22A462346298832F8020F013381428E
:10C0A0009BB284BF28801180052BF4D1042C05F1AC
:10C0B0000205ECD1BDF80820BDF806301344BDF8E8
:10C0C0000A2012FA83F39BB20320B3FBF0F005B011
:10C0D000F0BD000070B5074B054618780C46FFF719
:10C0E000C7FF054B06461878FFF7C2FF2E80208059
:10C0F000012070BD020000200100002073B506463B
:10C100000D4668460DF10201FFF7E4FF10B900206B
:10C1100002B070BD0DF1060101A8FFF7DBFF00289A
:10C12000F5D0BDF80410BDF80020914205D801F10A
:10C130003103934205DA9142E9D102F131038B4296
:10C14000E5DBBDF80640BDF802309C4205D804F19D
:10C150003100984205DA9C42D9D103F13100A04266
:10C16000D5DB0A44234452105B10328001202B801F
:10C17000CEE7000038B52F4B2F4CD3F80432002BFC
:10C1800046D190B104F10A012046FFF7B7FF94F9B8
:10C190001430002B05DBC02323752388238163899A
:10C1A0006382207D00F0800038BD04F10A05294635
:10C1B0002046FFF7A3FF0028E9D035F80A3CD4ED6C
:10C1C000066A07EE103AB4F9203007EE903AB8EE5E
:10C1D000C77AF8EEE77AE6EE877AD4ED076AFCEEE6
:10C1E000E77A17EE903A25F80A3C638907EE103A91
:10C1F000B4F9223007EE903AB8EEC77AF8EEE77A53
:10C20000E6EE877AFCEEE77A17EE903A6381BEE7B6
:10C2100094F91420237D002AA3BF002363824FF6E4
:10C22000FF7303F07F03A5BF2380044B2375A36036
:10C23000B7E700BF00804042500E00200000FFFF23
:10C240002DE9F8430D4604461046FDF759FD2FB27F
:10C25000A01EE21C1FFA80F83B46394612B200B21B
:10C26000FDF7A2FC26B2A91EEB1C023402353246B1
:10C270001BB21FFA81F93046A4B2ADB209B2FDF784
:10C2800093FC29462046FDF7D1FB29464046FDF7A1
:10C29000CDFB49462046FDF7C9FB49464046FDF720
:10C2A000C5FB394630460222BDE8F843FDF7C6BC5F
:10C2B0002DE9F84F0D460446BDF828002FB29246EE
:10C2C0009B46FDF71DFDA01EE21C1FFA80F83B46B1
:10C2D000394612B200B2FDF767FC26B2A91EEB1C6C
:10C2E0001FFA81F9324630461BB209B202340235D8
:10C2F000FDF75AFCA4B20FFA8AF20FFA8BF3394613
:10C300003046ADB2FDF750FC29462046FDF78EFBC6
:10C3100029464046FDF78AFB49462046FDF786FB45
:10C3200049464046FDF782FB394630460222BDE8C9
:10C33000F84FFDF783BC00002DE9F04F2DED028B87
:10C34000974B91B01888FDF7F7FB964A052101201D
:10C35000FDF75EFF14214FF478420846FFF770FFA7
:10C36000914B002400221C759A6125468F4A138840
:10C370009BB22BB30026168007F0F4FEFCF7A0FD5D
:10C380008B4B1B78012B8B4B16BF0122C3F8A46289
:10C39000C3F8A422884B1A7812B9884A12781AB1C5
:10C3A000844A0021C2F8A8121B7833B9834B1B784A
:10C3B0001BB9804B0122C3F8A8220120FFF7DAFE47
:10C3C000794B1A7D02F0C001402940F0478222F0EB
:10C3D00040021A7510AA02EB8502013519885B89A3
:10C3E00022F80E3CEDB26B1E22F8101C032B22D853
:10C3F000DFE803F002102637142108464FF6FF72DB
:10C40000FFF71EFF6E4B18884FF478421438142142
:10C4100080B20EE06A4C208814384FF6FF72142167
:10C4200080B2FFF70DFF618814394FF4784289B26A
:10C430001420FFF705FF0A20FBF7CEFE012495E745
:10C440005F4C618814394FF6FF7289B21420FFF7F0
:10C45000F7FE61882088143914384FF4784289B285
:10C46000D6E7BDF83050BDF83470BDF83240BDF8A5
:10C4700036A0EB1B002BA4EB0A00B8BF5B420028E0
:10C48000B8BF40425B4300FB003010F02FF841EC96
:10C49000100B0FF0BBFD51EC100B10F079FB83B2C9
:10C4A00008EE903ABDF838B0BDF83C30BDF83E20FB
:10C4B000BDF83A600693ABEB0303B01A002BB8BF8C
:10C4C0005B420028B8BF40425B4300FB003007924C
:10C4D00010F00CF841EC100B0FF098FD51EC100B24
:10C4E00010F056FB83B208EE103AB8EE687AF8EE18
:10C4F000C87AC7EE277A17EE900A10F019F8304B79
:10C500001A885B880992089321A3D3E90023804607
:10C51000894610F0D7FA70B91FA3D3E9002340462B
:10C52000494610F0EDFA30B918EE903A1BB118EE0A
:10C53000103A002B48D1089BA3F11401099BA3F1E9
:10C5400014004FF6FF7289B280B2FFF779FE142112
:10C5500008464FF47842FFF773FE1A4B002240461C
:10C56000494610F03DF810F013FB079B0393069B20
:10C57000CDF800B080B2CDE90163049053463A464D
:10C5800021462846FFF7E4FB0024EEE6AFF30080E7
:10C59000666666666666EE3FCDCCCCCCCCCCF03F12
:10C5A000460E00208B190208500E0020CE060020F7
:10C5B000CA06002000804242D30C0020D40C002088
:10C5C000FE0C002000005940A5EB0B03002BA4EB50
:10C5D0000600B8BF5B420028B8BF40425B4300FB87
:10C5E00000300FF083FF41EC100B0FF00FFD069BA6
:10C5F000079AFB1AAAEB0200002BB8BF5B42002887
:10C60000B8BF40425B4300FB00308DED0A0B0FF0DA
:10C610006DFF41EC100B0FF0F9FCDDE90A0159EC5C
:10C62000108B10F0B5FA80B207EE900A49464046EA
:10C63000B8EE678A10F0ACFA80B207EE900AF8EE16
:10C64000E77AC8EE277A17EE900A0FF071FF9CA3E5
:10C65000D3E900238046894610F034FA00287FF49D
:10C660006AAF99A3D3E900234046494610F048FA3F
:10C6700000287FF460AFA7EB0B03002BAAEB0600AA
:10C68000B8BF5B420028B8BF40425B4300FB0030AC
:10C690000FF02CFF41EC100B0FF0B8FC069B079A33
:10C6A000EB1AA01A002BB8BF5B420028B8BF40426B
:10C6B0005B4300FB00308DED0A0B0FF017FF41ECE0
:10C6C000100B0FF0A3FCDDE90A0159EC108B10F000
:10C6D0005FFA80B207EE900A49464046B8EE678A94
:10C6E00010F056FA80B207EE900AF8EEE77AC8EE3C
:10C6F000277A17EE900A0FF01BFF71A3D3E90023EE
:10C700008046894610F0DEF900287FF414AF6EA34E
:10C71000D3E900234046494610F0F2F900287FF49F
:10C720000AAF099BDFF8A881283B07EE103A7B1B74
:10C7300007EE903AB8EEC77AF8EEE77A3D44C7EED6
:10C74000276A07EE905A9DED097AC8ED066AF8EE61
:10C75000E77AB8EEC77AF6EE005AA6EEE77A67EE09
:10C76000257AFDEEE77A17EE903AA8F82030089B7C
:10C77000283B06EE103A331B07EE903AB8EEC66A35
:10C78000F8EEE77A344486EE277A07EE904A9DED7C
:10C79000086A88ED077AF8EEE77AB8EEC66AA7EE7F
:10C7A000676A66EE257AFDEEE77A17EE903AFDEEBF
:10C7B000E67AA8F8223017EE903A002BB8BF5B4219
:10C7C000022B08DCFDEEC77A17EE903A002BB8BFBB
:10C7D0005B42022B2BDD089BA3F11401099BA3F103
:10C7E00014004FF6FF7289B280B2FFF729FD1421C1
:10C7F00008464FF47842FFF723FD06212A4A01201C
:10C80000FDF706FD98F82430284A002B0CBF0123C1
:10C81000002388F8243008BF9021254B0BBF1170EE
:10C82000D021D022117018BF90221A70ACE6214C92
:10C830002088FDF781F9204A06210120FDF7E8FC58
:10C840004FF4FA70FBF7C8FCFFF7D0FA208811B05C
:10C85000BDEC028BBDE8F04FFDF76EB90A20013444
:10C86000FBF7BAFCA4B240F2E9339C427FF47EAD00
:10C87000124A05210120FDF7CBFC4FF4FA70FBF7BB
:10C88000ABFC4FF6FF70FDF73BFA0020FDF73EFAD8
:10C89000084B1888FDF750F911B0BDEC028BBDE8CC
:10C8A000F04FFFF707BB00BF9A19020802000020F3
:10C8B00001000020460E0020AC190208C41902082D
:10C8C000666666666666EE3FCDCCCCCCCCCCF03FDF
:10C8D000500E002010B50121262007F0DFFC214872
:10C8E00010230322022107F0DFFA1E48102303223F
:10C8F000042107F0D9FA012319461A48032207F048
:10C90000D3FA1948012303224FF4005107F0CCFA5F
:10C910001648012303224FF4006107F0C5FA1448BA
:10C920000024002300F10A018361C361C0E90044CF
:10C93000C0E9024404610475046280F82440FFF7F2
:10C94000C9FBFFF7B7FA58B90A4B1888FDF7F4F896
:10C95000FFF7F2FCFFF74AFAFFF7ACFA012010BD2F
:10C960002046FCE700040240000802400014024098
:10C97000500E0020460E0020F0B5012189B0084677
:10C9800007F08CFC214C224D0121084607F0AAFC3F
:10C990001223204603224FF4807107F085FA2046C7
:10C9A0000122082107F06EFA002442F21073A72238
:10C9B00005A92846CDE9052301260327ADF81C402B
:10C9C00007F06EFF02A9284602940396ADF8107096
:10C9D00007F0ECFF32463946284608F043F8314666
:10C9E000284607F09DFF0B4B019301A806F03AFF84
:10C9F000094B019301A806F035FF084B1C70084B4A
:10CA00001C70084B1C7009B0F0BD00BF0000024054
:10CA1000000001401B020001190100017B0E0020F3
:10CA20007A0E0020790E002008B51148012108F087
:10CA300022F801280ED10F4991F900200B78002A25
:10CA400008DA13F00F0003F0EF0209D00D280AD81E
:10CA500001320A70BDE808400548012108F016B807
:10CA600042F04002F4E703F060030B70F2E700BF0E
:10CA700000000140840E002070B52F48022107F00D
:10CA8000FAFF012810D12D4B2D4CD3F820528DB137
:10CA90002948022107F050FF2748002107F03EFFF8
:10CAA000237843F010032370BDE870402248022130
:10CAB00007F0ECBF2048234E07F046FF29463080A0
:10CAC0001D4807F039FF2278D3060CD533881606A7
:10CAD00026D56FF496701918B1F5F97F07D81A4A60
:10CAE00013685B001360237823F01003DBE76FF417
:10CAF000AF615918B1F5C77F05D8134A13685B00B9
:10CB000043F00103EEE7A3F69903B3F5C77FEAD834
:10CB10000E490B7822F00F0201330B702270E2E70E
:10CB2000A3F58353093BB3F5F97F9FBF074B62F031
:10CB30007F0222701D70D6E70000014000004042D5
:10CB4000840E0020820E00207C0E0020850E002026
:10CB500010B5104C227812F0400012D00E4B0F4945
:10CB60001B68180E08706FEA1341C9B2814209D1DF
:10CB7000C3F30720DB43DBB2834203D118B11306B2
:10CB800001D510BD002022F04002054B227000228A
:10CB90001A70F6E7840E00207C0E0020780E00202C
:10CBA000850E002013B56E4C02F0F8FA0DF1030368
:10CBB0000DF102020DF10101684602F0C1FA23886D
:10CBC00053B1013B2380674A13780133DBB2132B47
:10CBD00005D8137002B010BD634A1370F3E7002349
:10CBE0001370FFF7B5FF614A034610700028F1D0BB
:10CBF0005D4A11788142EDD020880028EAD17A2B55
:10CC0000137000F0988022D8302B77D017D8182BCB
:10CC100000F082800CD8022B4CD0102B00F09A80B0
:10CC2000534A3223238000231370524A1360D1E702
:10CC3000222BF5D1504A137843F004032EE0622BE7
:10CC40002ED0682B49D0382BEAD14C4A83E0B02B48
:10CC50004FD014D8A22B1DD00AD8902B34D0982BAB
:10CC6000DED1474B1A78002A35D000221A70D7E758
:10CC7000A82BD5D1404A137843F010030EE0E02BE7
:10CC80001DD0E22B11D0C22BCAD13B4A137843F0FE
:10CC9000010303E0384A137843F020031370BFE721
:10CCA000354A137843F04003F8E7334A137843F0EA
:10CCB0008003F3E7304A137843F00203EEE72E4A8D
:10CCC000137843F00803E9E72E4A137BB3FA83F3A2
:10CCD0005B0913732C4B0122C8E72C4B1A78002AEE
:10CCE0009ED000221A702A4B1B68002B98D09847C0
:10CCF00096E7264B1B78002B92D0F4E79DF8003086
:10CD00000C22B3FBF2F102FB113301338DF8043036
:10CD100001A907F0A1FB83E79DF800308DF80430EE
:10CD20009DF801303B22B3FBF2F102FB11330133DA
:10CD30008DF80530ECE79DF800308DF804309DF853
:10CD400002303B22B3FBF2F102FB113301338DF8C9
:10CD50000630DDE70F4A00212620FDF759FA5FE78C
:10CD6000800E0020790E00207A0E00207B0E00201D
:10CD7000840E00207C0E0020B11100201ED001087E
:10CD8000A911002078000020C6060020B011002064
:10CD9000641400201BD0010807EE900AF8EE677AB1
:10CDA00008B517EE900A0FF0C3FB0FA3D3E90023D9
:10CDB0000FF016FC0EA3D3E900230FF059FA0EA3CF
:10CDC000D3E900230FF036FD054B00220FF052FA95
:10CDD000044B00220FF004FC0FF0B2FE00B208BDBD
:10CDE00000002E40000059406666666666664A3F4F
:10CDF00052B81E85EB51E83F7B14AE47E17A643FA1
:10CE000070B501218AB0202007F048FA03231A46A2
:10CE10002B482C4E802107F047F801214FF4A060E9
:10CE200007F060FA01214FF4807007F073FA0021D7
:10CE30004FF4807007F06EFA01214FF4806007F024
:10CE400069FA00214FF4806007F064FA00254FF47E
:10CE500080336846CDE90053CDE9025506F05EFD0A
:10CE6000049506950895184D012404A93046ADF89F
:10CE700014408DF8244006F02BFD04A9284606F046
:10CE800027FD204606F068FD2146304606F05AFD93
:10CE90002146284606F056FD2346224630461021FC
:10CEA00006F066FD234622460521284606F060FD71
:10CEB000304606F0A3FD284606F0A0FD0AB070BD7E
:10CEC00000140240002001400022014038B52948EA
:10CED000022106F09BFD28B3274C264806F093FD5F
:10CEE0002368264A18442060138801339BB21380BC
:10CEF00013889BB2632B12D9002515802068642308
:10CF0000B0FBF3F046F2267380B258431C4BC013BB
:10CF1000188000F57A7080B200F03EF82560154860
:10CF200006F06CFD1748022106F070FD00B3164CA8
:10CF3000144806F068FD2368144A184420601388DA
:10CF400001339BB2138013889BB2632B0BD900254E
:10CF5000158064232068B0FBF3F080B2FFF71CFF5C
:10CF60000B4B25601880BDE83840064806F046BDEA
:10CF700038BD00BF00220140900E0020960E002018
:10CF8000880E0020002001408C0E0020940E00200E
:10CF9000860E00200000000038B50FF0A7FA164BEF
:10CFA00000220FF047FC154B00220FF019FB0EA3D7
:10CFB000D3E900230FF03EFC0DA3D3E90023044680
:10CFC0000D460FF09DFD10B109A5D5E90045294694
:10CFD00020460FF0DDFDBDE8384081B2002006F0AC
:10CFE0003FBD00BFAFF300806666666666660A40B6
:10CFF0000000000000FEAF4000408F400000B04045
:10D000001FB50121084607F049F901214FF00050F2
:10D0100007F05CF9032300241A460B48102106F0A0
:10D0200043FF0223694620460393CDE9004402945E
:10D0300006F0F2FC2046012106F004FD21462046C0
:10D0400006F00EFD04B010BD0000024010B504460D
:10D050001420FCF701FB20701520FCF7FDFA60702E
:10D060001620FCF7F9FAA0701720FCF7F5FAE0702B
:10D070001820FCF7F1FA20711920FCF7EDFA607125
:10D080001A20FCF7E9FAA0711B20FCF7E5FAE07121
:10D090001C20FCF7E1FA20721D20FCF7DDFA60721B
:10D0A0001E20FCF7D9FAA0721F20FCF7D5FAE07217
:10D0B0002020FCF7D1FA20732120FCF7CDFA607311
:10D0C00010BD10B5044601781420FCF7C5F961784D
:10D0D0001520FCF7C1F9A1781620FCF7BDF9E1781D
:10D0E0001720FCF7B9F921791820FCF7B5F9617917
:10D0F0001920FCF7B1F9A1791A20FCF7ADF9E17913
:10D100001B20FCF7A9F9217A1C20FCF7A5F9617A0C
:10D110001D20FCF7A1F9A17A1E20FCF79DF9E17A08
:10D120001F20FCF799F9217B2020FCF795F9617B02
:10D130002120BDE81040FCF78FB9000038B5C1F3DD
:10D1400000220C46CBB20949097842EA4002054662
:10D15000D2B241B906483421FCF7C6F8054B00208D
:10D1600023F8154038BD04483421F5E7F30C0020BE
:10D1700000540040040000200058004038B50D4D18
:10D18000B5F85E1000F0070021F0700141EA0011CF
:10D19000040189B22F20FFF7D1FFB5F8603023F0EA
:10D1A000700344EA030189B2BDE838403020FFF73C
:10D1B000C5BF00BF0400002038B50C4DB5F85E10A7
:10D1C00000F0070421F00701214389B22F20FFF767
:10D1D000B5FFB5F8603023F0070344EA030189B2D4
:10D1E000BDE838403020FFF7A9BF00BF0400002091
:10D1F00038B50D4D0C46EB8868B143F003010320B0
:10D20000FFF79CFFAB8854B143F00301BDE8384001
:10D210000220FFF793BF23F0030399B2EFE723F057
:10D22000030189B2F2E700BF0400002070B5154E7B
:10D230000D461446B188A8B141F00C010220FFF759
:10D240007DFFB6F8583043F033012C20FFF776FF0E
:10D250009DB10520FFF792FF8CB10720BDE870401B
:10D26000FFF7AABF21F00C010220FFF767FFB6F815
:10D27000583023F0330399B2E7E72846EAE720461F
:10D28000ECE700BF0400002010B5041E18BF012405
:10D2900009B144F0160421463220FFF74FFF214622
:10D2A0003320BDE81040FFF749BF01F0030100F053
:10D2B0000300490141EAC0010420FFF73FBF10B558
:10D2C0000C4610F03F0108BF402114F03F0408BF96
:10D2D00040243420FFF732FF44F480713520BDE84C
:10D2E0001040FFF72BBF10B510F03F0408BF4024DB
:10D2F00021463620FFF722FF44F480713720BDE835
:10D300001040FFF71BBF00F00F012920FFF716BFE9
:10D31000084B18299A8C28BF1821C1F1180302F470
:10D320008072DBB200F00301134343EA4111122083
:10D33000FFF704BF04000020182928BF1821C1F1FD
:10D34000180100F00300C9B241EA40111320FFF7B1
:10D35000F5BE182928BF1821C1F1180100F00300FB
:10D36000C9B241EA40111420FFF7E8BE182928BFCE
:10D370001821C1F1180100F00300C9B241EA4011BF
:10D380001520FFF7DBBE182928BF1821C1F11801AD
:10D3900000F00300C9B241EA40111620FFF7CEBEEB
:10D3A00010B50121062006F079FF37481223032229
:10D3B0004FF4805106F078FD3348122303224FF4D6
:10D3C000005106F071FD314812230322042106F0BA
:10D3D0006BFD2E4812230322082106F065FD12235F
:10D3E0002A480322402106F05FFD274805220C2130
:10D3F00006F048FD244805220D2106F043FD234890
:10D400000522032106F03EFD20480522062106F0F4
:10D4100039FD1E480522022106F034FD0021084690
:10D42000FFF78CFE044660BB1B210120FFF786FE40
:10D430004FF4D8710220FFF781FE6C210320FFF723
:10D440007DFE21460620FFF779FE10212B20FFF7F5
:10D4500075FE4FF480712F20FFF770FE4FF480713E
:10D460003020FFF76BFE02213120FFF767FE082115
:10D470000A20FFF763FE08210E20FFF75FFE20461B
:10D4800010BD0124FBE700BF000402400008024079
:10D4900010B54FF48034013C05D240F2FF5007F044
:10D4A00043F9002010BD802007F034F90028F2D0A5
:10D4B000002CF2D10320F5E738B5124C0546636B1A
:10D4C00013F0450FFBD0042007F024F920B104200D
:10D4D00007F02AF9032038BD012007F01BF920B11D
:10D4E000012007F021F90120F5E72369AB4207D1BC
:10D4F00040F2FF5007F018F9606900F00800EAE711
:10D500001020E8E7002C014010B511494FF480339A
:10D510000022013B0FD2530713D4012007F0FAF881
:10D52000044618B1012007F0FFF8012440F2FF5033
:10D5300007F0FAF809E04A6B12F0450FE9D0002B2A
:10D54000E9D1042007F0F0F80324204610BD00BF05
:10D55000002C014010B50A4A536B13F0450FFBD065
:10D56000042007F0D7F8044628B1042007F0DCF8BF
:10D570000324204610BD40F2FF5007F0D5F8F8E72D
:10D58000002C0140F8B51B4E07460D46736B13F097
:10D59000450FFBD0042007F0BDF828B1042007F0A8
:10D5A000C3F803242046F8BD012007F0B3F8044671
:10D5B00020B1012007F0B8F80124F3E73369BB423A
:10D5C00001D01024EEE740F2FF5007F0ADF8736988
:10D5D00013F4604F02D11B0C2B80E3E7990406D4AF
:10D5E0005A04EED413F4004F18BF0F24DAE71324C3
:10D5F000D8E700BF002C01400D4908B54FF4803238
:10D600000023013A05D25A0709D45B060CD4002046
:10D6100009E04B6B13F0450FF3D0002AF3D104203F
:10D6200007F082F8032008BD402007F07DF8EEE700
:10D63000002C01400023012803F1010201D1D8B2DE
:10D64000704740081346F6E72DE9F3474B4D00239A
:10D650001024284608274FF0400A4FF48069CDE98E
:10D660000033C5E90074C5E902A38846C5F81090E7
:10D6700007F024F82046FFF71FFF044600284CD18E
:10D680003F4B1B6837241B04C5E903092846C5E93D
:10D69000014A2B6007F012F82046FFF70DFF0646FF
:10D6A0000446002839D137484FF0FF33C0E900372E
:10D6B00030230227C0E90237012343613324066186
:10D6C00007F012F82846C5E9014AC5E903692E604A
:10D6D00006F0F4FF2046FFF7EFFE0446E8B92A4DB6
:10D6E00040F22A666B6B33420FD14FF4001007F003
:10D6F00011F80028F6D002AA02EB8404D5F8803095
:10D7000044F8083C0124A7420BD1082007F002F896
:10D7100048B1082007F008F80424204602B0BDE80C
:10D72000F0872746DEE7022006F0F4FF20B1022052
:10D7300006F0FAFF0224F0E7202006F0EBFF20B10C
:10D74000202006F0F1FF0624E7E74FF4007006F012
:10D75000E1FF044628B14FF4007006F0E5FF07240E
:10D76000DBE740F2FF5006F0DFFF009B1BBAC8F872
:10D770000430019B1BBAC8F80030CEE73C110020F2
:10D78000FC10002024110020002C014073B5204A19
:10D79000126805461F48002312040093026001939B
:10D7A0000D214022C3604FF480630361C0E9011280
:10D7B00006F084FF184B5A6B0192019A12F0450F44
:10D7C000F9D0012006F0A6FF30B1012006F0ACFF31
:10D7D0000124204602B070BD042006F09BFF0446E1
:10D7E00020B1042006F0A0FF0324F2E70A4E3369BB
:10D7F0000D2B0AD140F2FF5006F096FF736900939B
:10D80000009BC3F343232B70E3E71024E1E700BF41
:10D81000FC1000203C110020002C01402DE9F341B8
:10D820000023CDE900331D4B5B699A0105462FD4D7
:10D830001B4E69463088FFF707FF50BB019B5B0317
:10D840002AD5184C3368E0601B044FF03708204697
:10D8500040274FF48066C4E901872360266106F003
:10D860002DFF4046FFF728FE98B9003D18BF01255F
:10D870006D00C4E90306256020460625C4E901576A
:10D8800006F01CFF284602B0BDE8F041FFF714BEC9
:10D890000E2002B0BDE8F0812520FAE7002C0140FF
:10D8A000FC1000203C110020064B074900221A60A2
:10D8B0005A609A60DA605A629A62DA629963DA634D
:10D8C000704700BF002C0140FF07C000034A5368A7
:10D8D00023F0FF0318435060704700BF002C014045
:10D8E0005E482DE9F84F762300260375C0E90066EF
:10D8F000C0E90266066106F0BBFE032006F0D0FE1A
:10D90000574A584C536843F4807353604A2755482C
:10D910004FF48068C4E90066C4E90266C4F8108068
:10D9200006F0CCFEFFF7B4FD0546002800F082802B
:10D93000013F17F0FF07EAD12846BDE8F88F4A4BB0
:10D9400001221A704FF0804700264023C4E90236B6
:10D9500044484FF037084FF48063C4E900682361FE
:10D9600006F0ACFE4046FFF7A7FD00283BD147F08C
:10D970000047DFF8F080064647F4801700234FF099
:10D98000370B40464FF0400A4FF48069C4E9003B32
:10D99000C4E902A3C4F8109006F090FE5846FFF7C1
:10D9A0008BFD002844D12923C4E903094046C4E97A
:10D9B000013A276006F082FEFFF7CCFDC0BB284B82
:10D9C0005B69002B06F101064FF6FF7203DB9642FE
:10D9D000D4D11B25B0E79642FBD05C00ACD5224BDE
:10D9E00002221A70A8E7214FDFF87880DFF87090E4
:10D9F000276001214023C4E9011300204FF4806314
:10DA0000C4E90303404606F059FEFFF7A3FD78B9C9
:10DA1000D9F81430002B06F101064FF6FF7302DB34
:10DA20009E42E5D1D5E79E42D3D00F4B0322D8E7E3
:10DA3000054681E74FF4D5720823C4E9002340234B
:10DA4000C4E902300748C4F8108006F037FEFFF73B
:10DA5000D3FD00283FF473AF2F4675E75011002027
:10DA6000002C01403C110020201100200080FF808C
:10DA700037B50123ADF8063006F018FE002874D043
:10DA80003B4C2378042B1AD03A4800230222C0E9E9
:10DA90000032C022C0E902234FF48063036106F024
:10DAA0000DFEFFF731FD00283CD1334A334B51695D
:10DAB000196091695960D169126A9960DA602378B6
:10DAC000022B1BD9062B19D02278032A11D1BDF8BD
:10DAD000063028481B04C0E9003240250023C0E975
